:0400000071EF00F0AC
:100008005A82F2BAF2A454D0F294000172517311D8
:10001800D8B44ED03C0ED76EB00ED66E604B612B66
:100028007F2B000E7B6F7BC07CF07CC07DF07DC099
:100038007EF00A0E7F19D8A43BD0000E7F6F582A95
:10004800050E016E5850EDEC0CF00009D8A403D051
:10005800010E00017E6F58C005F0030E0516D8A4E6
:1000680003D0010E00017D6F030E016E5850EDECB8
:100078000CF00009D8A403D0010E00017C6F58B021
:1000880003D0010E00017B6F3B0E5818D8A410D086
:10009800000E586E592A3B0E5918D8A409D0000EE4
:1000A800596E000E00017F6F7FC058F058C059F09C
:1000B8009DB29EA210D09E9200018C51415C42508C
:1000C800800A056E8D51800A0558D8A0BE2A41C005
:1000D8008CF042C08DF05A9211003BEF0AF04DC0EF
:1000E80011F0230E126E4B5095EC09F080B204D03B
:1000F80000018751D8B44FD000018351D8A44BD008
:100108008751D8A406D0FB0E076E7F0E086E66ECEA
:100118000CF04B06D8A04C064CBE05D04C5007E15D
:100128004B04D8B004D0000E4C6E010E4B6E4B2819
:10013800116E4D50050DF3CF12F04D50050DF350D3
:10014800050F136E4B5062EC0BF04DC011F0230EEF
:10015800126E4B5095EC09F05750D8B416D04B504E
:10016800020F116E4D50050DF3CF12F04D50050DD5
:10017800F350050F136E4B2862EC0BF04DC011F0D5
:10018800250E126E4B2895EC09F0000E0001836FC6
:1001980083C087F007D080B205D08351D8B402D08D
:1001A800010E836F80B803D08651D8B47ED08251B7
:1001B800D8A47BD08651D8A406D0EF0E076E7F0E48
:1001C800086E66EC0CF0070E4B184C10D8B40FD024
:1001D8004B28116E4D50050DF3CF12F04D50050D03
:1001E800F350050F136E4B5062EC0BF00ED04BC062
:1001F80011F04D50050DF3CF12F04D50050DF35091
:10020800050F136E4B5062EC0BF04B4A4C2A4CBE58
:100218000AD04C5004E1080E4B5CD8A004D0000E64
:100228004C6E070E4B6E4B04116E4D50050DF3CFFF
:1002380012F04D50050DF350050F136E4B5062EC44
:100248000BF04DC011F0230E126E4B5095EC09F0D7
:10025800010E4B241C6E000E4C201D6E1DBE06D0D8
:100268001D501DE1080E1C5CD8B019D05750D8B4E9
:1002780016D04B50020F116E4D50050DF3CF12F0F2
:100288004D50050DF350050F136E4B2862EC0BF023
:100298004DC011F0250E126E4B2895EC09F0000E9A
:1002A8000001826F82C086F007D080B805D08251E5
:1002B800D8B402D0010E826F80B603D08451D8B46E
:1002C8005CD08051D8A459D08451D8A406D0F50E5A
:1002D800076E7F0E086E66EC0CF0070E4B184C107C
:1002E800D8B40FD04B28116E4D50050DF3CF12F036
:1002F8004D50050DF350050F136E4B5062EC0BF08B
:100308000ED04BC011F04D50050DF3CF12F04D50EB
:10031800050DF350050F136E4B5062EC0BF04D06B4
:10032800D8A04E064EAE04D0000E4E6E000E4D6E96
:100338004DC011F0230E126E4B5095EC09F0010ED2
:100348004B241C6E000E4C201D6E1DBE06D01D5089
:100358000EE1080E1C5CD8B00AD05750D8B407D0AC
:100368004DC011F0250E126E4B2895EC09F0000EC9
:100378000001806F80C084F007D080B605D080511E
:10038800D8B402D0010E806F80B403D08551D8B4A0
:1003980061D08151D8A45ED08551D8A406D0DA0E98
:1003A800076E7F0E086E66EC0CF0070E4B184C10AB
:1003B800D8B40FD04B28116E4D50050DF3CF12F065
:1003C8004D50050DF350050F136E4B5062EC0BF0BA
:1003D8000ED04BC011F04D50050DF3CF12F04D501B
:1003E800050DF350050F136E4B5062EC0BF04D4AA0
:1003F8004E2A4EBE0AD04E5004E1150E4D5CD8A0D0
:1004080004D0000E4E6E140E4D6E4DC011F0230E2A
:10041800126E4B5095EC09F0010E4B241C6E000E29
:100428004C201D6E1DBE06D01D500EE1080E1C5C32
:10043800D8B00AD05750D8B407D04DC011F0250E07
:10044800126E4B2895EC09F0000E0001816F81C0F7
:1004580085F0120080B412008151D8B41200010E48
:10046800816F1200000E736F000E726F000EBE6E69
:10047800070E116E000E126E7F0E136E000E62ECE8
:100488000BF0000E1A6EFA0E1B6E7E0E1C6E000E1E
:10049800EAEC0BF0080E1A6E9E0E1B6E7F0E1C6E99
:1004A800010EEAEC0BF000017A51966F976B4F50F2
:1004B800961961E150509719D8A45DD063BF10D048
:1004C800635104E10B0E625DD8A00AD00A0E1A6EC1
:1004D80062C01BF063C01CF0050EA2EC06F009D048
:1004E8000B0E1A6E62C01BF063C01CF0050EA2EC66
:1004F80006F00C0E116E2F0E126E050E95EC09F01B
:10050800050E4F185010D8A40AD00D0E1A6E000E02
:100518001C6E060E1B6E050EA2EC06F02CD0040E07
:100528004F185010D8A40AD00D0E1A6E000E1C6E6B
:10053800070E1B6E050EA2EC06F01DD0030E4F1819
:100548005010D8A40AD00D0E1A6E000E1C6E090E9B
:100558001B6E050EA2EC06F00ED0020E4F185010BE
:10056800D8A409D00D0E1A6E000E1C6E0D0E1B6E4F
:10057800050EA2EC06F051505210D8B442BE10D06D
:10058800425004E12A0E415CD8A00AD0030E1A6E2C
:100598002B0E1B6E7F0E1C6E040EEAEC0BF029D09E
:1005A80051505210D8B442BE10D0425004E1240E2B
:1005B800415CD8A00AD0060E1A6E7C0E1B6E7F0E08
:1005C8001C6E040EEAEC0BF014D051505210D8B443
:1005D80042BE0FD0425004E1150E415CD8A009D0AC
:1005E800080E1A6E940E1B6E7F0E1C6E040EEAEC3B
:1005F8000BF0030E51185210D8A409D0040E1A6E2D
:100608003F0E1B6E7F0E1C6E040EEAEC0BF0020E02
:1006180051185210D8A409D0080E1A6EA80E1B6ED5
:100628007F0E1C6E040EEAEC0BF051045210D8A495
:1006380009D0090E1A6ED20E1B6E7F0E1C6E040EA8
:10064800EAEC0BF000017551D8B40AD0070E1A6E07
:100658006F0E1B6E7F0E1C6E070EEAEC0BF009D0B6
:10066800070E1A6E880E1B6E7F0E1C6E070EEAECC4
:100678000BF0140E076E7F0E086E66EC0CF080AA65
:10068800FED702EC0BF0120049C06EF04AC06FF0C2
:1006980055C068F056C069F047C06CF048C06DF0AE
:1006A80053C066F054C067F045C06AF046C06BF0AE
:1006B80043C064F044C065F04928116E5550050DDB
:1006C800F3CF12F05550050DF350050F136E495036
:1006D80062EC0BF04728116E5350050DF3CF12F062
:1006E8005350050DF350050F136E475062EC0BF095
:1006F8004528116E4350050DF3CF12F04350050DF8
:10070800F350050F136E455062EC0BF00001684B77
:10071800692B664B672B6407D8A065076E4B6F2B58
:100728006C4B6D2B6A4B6B2B6FBF06D06F5108E17A
:10073800020E6E5DD8B004D0000E6F6F010E6E6FA2
:100748006DBF06D06D5108E1020E6C5DD8B004D0C3
:10075800000E6D6F010E6C6F6BBF06D06B5108E118
:10076800020E6A5DD8B004D0000E6B6F010E6A6F7E
:100778006FBF0AD06F5104E1080E6E5DD8A004D097
:10078800000E6F6F010E6E6F6DBF0AD06D5104E1E0
:10079800080E6C5DD8A004D0000E6D6F010E6C6F52
:1007A8006BBF0AD06B5104E1080E6A5DD8A004D073
:1007B800000E6B6F010E6A6F69BF06D0695108E1C0
:1007C800020E685DD8B004D0000E696F140E686F11
:1007D80067BF06D0675108E1020E665DD8B004D045
:1007E800000E676F140E666F65BF06D0655108E18D
:1007F800020E645DD8B004D0000E656F140E646FED
:1008080069BF0AD0695104E1150E685DD8A004D00B
:10081800000E696F010E686F67BF0AD0675104E167
:10082800150E665DD8A004D0000E676F010E666FC6
:1008380065BF0AD0655104E1150E645DD8A004D0E7
:10084800000E656F010E646F6EC049F06FC04AF00C
:1008580068C055F069C056F06CC047F06DC048F0EC
:1008680066C053F067C054F06AC045F06BC046F0EC
:1008780064C043F065C044F068C011F0260E126EE3
:100888006E5195EC09F066C011F0260E126E00014B
:100898006C5195EC09F064C011F0260E126E00013F
:1008A8006A5195EC09F01200ECEC07F006EC0AF03E
:1008B8000B0E0001996F260E986F5D0EE82EFED77D
:1008C800982FFCD7992FFAD700D0070E116E000E7B
:1008D800126E7F0E136E000E62EC0BF04BEC08F0FC
:1008E80080AA05D0000E0001736F010E726F070E0B
:1008F800116E000E126E7F0E136E000E62EC0BF07E
:10090800000E526E030E516E000173BFFDD7735176
:1009180003E17205D8A0F8D721EC09F0050E4F18AD
:100928005010D8A407D000017E51D8B403D048ECA9
:1009380003F01BD0040E4F185010D8A404D00001A7
:100948007D51D8A4F4D7030E4F185010D8A404D062
:1009580000017C51D8A4EBD7020E4F185010D8A430
:1009680004D000017B51D8A4E2D7BCEC0CF073ECA6
:1009780000F05BEC09F003EC05F099EC08F06EEC84
:100988000AF082EC07F0140E116E240E126E070E98
:1009980095EC09F012EC07F09EAA21D0AECF9AF0A0
:1009A8000D0E00019A19D8B41AD09AC074F0710EBD
:1009B8007419D8A402D0010E876F610E7419D8A4D7
:1009C80002D0010E866F6F0E7419D8A402D0010EE2
:1009D800846F700E7419D8A402D0010E856F51501F
:1009E8005210D8B404D000017551D8B48DD7000E78
:1009F8000001736F000E726F36EC02F085D7495014
:100A08004B180BE14A504C18D8A407D055504D1834
:100A180004E156504E18D8B417D05750D8B417D050
:100A2800010E4B241C6E000E4C201D6E49501C18E4
:100A38000EE14A501D18D8A40AD055504D1807E1A8
:100A480056504E18D8A403D0010E0001786F4750B5
:100A58004B180BE148504C18D8A407D053504D18E8
:100A680004E154504E18D8B417D05750D8B417D002
:100A7800010E4B241C6E000E4C201D6E47501C1896
:100A88000EE148501D18D8A40AD053504D1807E15C
:100A980054504E18D8A403D0010E0001776F45506A
:100AA8004B180BE146504C18D8A407D043504D18AA
:100AB80004E144504E18D8B417D05750D8B417D0C2
:100AC800010E4B241C6E000E4C201D6E45501C1848
:100AD8000EE146501D18D8A40AD043504D1807E11E
:100AE80044504E18D8A403D0010E0001766F0001BF
:100AF8007851D8A406D07751D8A403D07651D8B469
:100B08001200000E716F010E706F5750D8B413D0D9
:100B1800000E576E3EEC0CF04B50020F116E4D500C
:100B2800050DF3CF12F04D50050DF350050F136E60
:100B38004B2862EC0BF05106D8A0520682EC07F065
:100B480012007851D8B429D014EC0CF012C014F06B
:100B580013C015F0000E176E070E166ECEEC09F0D6
:100B680014C049F015C04AF014EC0CF012C014F08F
:100B780013C015F0000E176E140E166ECEEC09F0A9
:100B880014C055F015C056F049504A10D8A402D0E8
:100B9800494A4A2A000E0001786F7751D8B429D003
:100BA80014EC0CF012C014F013C015F0000E176E00
:100BB800070E166ECEEC09F014C047F015C048F0C9
:100BC80014EC0CF012C014F013C015F0000E176EE0
:100BD800140E166ECEEC09F014C053F015C054F084
:100BE80047504810D8A402D0474A482A000E0001AE
:100BF800776F7651D8B4120014EC0CF012C014F0D0
:100C080013C015F0000E176E070E166ECEEC09F025
:100C180014C045F015C046F014EC0CF012C014F0E6
:100C280013C015F0000E176E140E166ECEEC09F0F8
:100C380014C043F015C044F045504610D8A402D063
:100C4800454A462A000E0001766F12005950D8A472
:100C58000FD0760E116E300E126E000E95EC09F064
:100C6800770E116E300E126E000E95EC09F01BD047
:100C78000A0E596010D0760E116E300E126E000EEC
:100C880095EC09F0770E1A6E59C01BF01C6A000E1D
:100C9800A2EC06F008D0760E1A6E59C01BF01C6A3A
:100CA800000EA2EC06F0780E116E3A0E126E000ECF
:100CB80095EC09F05850D8A40FD0790E116E300E6B
:100CC800126E000E95EC09F07A0E116E300E126E4F
:100CD800000E95EC09F01BD00A0E586010D0790E62
:100CE800116E300E126E000E95EC09F07A0E1A6E27
:100CF80058C01BF01C6A000EA2EC06F008D0790E52
:100D08001A6E58C01BF01C6A000EA2EC06F07B0E8F
:100D1800116E3A0E126E000E95EC09F07D0E116EF2
:100D2800300E126E000E95EC09F07C0E1A6E7FC024
:100D38001BF01C6A000EA2EC06F012003E6E1CAE00
:100D480015D01AC011F02D0E126E3E5095EC09F018
:100D58001A2A1BC006F01CC007F0FF0E096E0868AF
:100D680002EC0DF006C01BF007C01CF0000E406E30
:100D7800000E3F6E1B501C10D8A426D0300E1E6EDD
:100D88003F4A402A21D03F501E0FD96EDA6A1BC055
:100D980014F01CC015F0000E176E0A0E166ECEEC7D
:100DA80009F01450300FDF6E3F4A402A1BC006F08E
:100DB8001CC007F0000E096E0A0E086EDFEC08F082
:100DC80006C01BF007C01CF01CBE20D01C50DBE185
:100DD8001B04D8A01BD0D7D73F06D8A040063F5049
:100DE8001E0FD96EDA6ADF501D6E1D501B6E1C6A0D
:100DF8001AC011F01BC012F03E5095EC09F01A2AE7
:100E08007F0E1A6403D03E2A000E1A6E40BE1200EE
:100E18004050E2E13F04D8A01200DED7C282C2B23D
:100E2800FED7C350C4CF20F0216A20C021F0206A29
:100E38002010226E2150236E000173BF12007351DF
:100E480003E17205D8A0120023BE13D023BE03D03D
:100E58002304D8B00ED0000E506E050E4F6E060E4D
:100E68001A6EB20E1B6E7F0E1C6E000EEAEC0BF0B3
:100E7800120023BE18D02304D8A015D023BE05D055
:100E88002228010E2358D8B00ED0000E506E040E42
:100E98004F6E060E1A6EC20E1B6E7F0E1C6E000E73
:100EA800EAEC0BF0120023BE1BD02228010E2358B7
:100EB800D8A016D023BE06D0FE0E225C020E235800
:100EC800D8B00ED0000E506E030E4F6E060E1A6E7E
:100ED800BA0E1B6E7F0E1C6E000EEAEC0BF01200B1
:100EE800000E506E020E4F6E060E1A6ECA0E1B6E64
:100EF8007F0E1C6E000EEAEC0BF01200030E511868
:100F08005210D8A416D0000E116E220E126E000ECA
:100F180095EC09F0020E116E220E126E000E95EC81
:100F280009F0040E116E220E126E000E95EC09F0F7
:100F38001200020E51185210D8A416D0000E116ECD
:100F4800220E126E000E95EC09F0020E116E220EA2
:100F5800126E000E95EC09F0040E116E200E126E42
:100F6800000E95EC09F0120051045210D8A416D0C6
:100F7800000E116E220E126E000E95EC09F0020E94
:100F8800116E200E126E000E95EC09F0040E116E13
:100F9800200E126E000E95EC09F0120051505210FE
:100FA800D8A41200000E116E200E126E000E95ECE1
:100FB80009F0020E116E200E126E000E95EC09F06B
:100FC800040E116E200E126E000E95EC09F0120040
:100FD800010E0F01386F000E396F000E3A6F000EC8
:100FE8003B6F000E806E000E816E000E836E92685D
:100FF800000E936E000E956EC40E946E9484A00E2F
:10100800F26E800ED06E810ED56E3C0ED76EB00E8D
:10101800D66E040EF16E94949D82BA827C0EBB6EDD
:10102800BD86BD84000EBE6EBD9ABD98BA84D350ED
:101038008F0B5009D36E948E948C100EAF6E000EE9
:10104800B06EAC84B886AB8EAB88AC8A830EC21601
:10105800C282C19EF30EC116FC0EC116C08EC050CE
:10106800C70B0809C06EC050F80B0109C06EC280DA
:1010780027EC0DF0070E116E000E126E7F0E136E28
:10108800000E62EC0BF0000E44EC0DF01200000EA6
:10109800216E000E46D020502110D8A443D0090E4E
:1010A8001A6EE80E1B6E7F0E1C6E030EEAEC0BF038
:1010B800060E1A6E620E1B6E7F0E1C6E040EEAEC94
:1010C8000BF0090E1A6EE10E1B6E7F0E1C6E050EDC
:1010D800EAEC0BF0510E076E7E0E086E66EC0CF013
:1010E800510E076E7F0E086E66EC0CF0B40E076E9C
:1010F8007E0E086E66EC0CF0DA0E076E7E0E086E39
:1011080066EC0CF08B0E076E7E0E086E66EC0CF02B
:10111800150E076E7F0E086E66EC0CF0000E216E41
:10112800010E206E80BA1200B6D7000170517111FD
:10113800D8B427D0000E716F000E706FA5EC05F0C3
:101148007851D8B407D055C011F0260E126E495008
:1011580095EC09F000017751D8B407D053C011F0CD
:10116800260E126E475095EC09F000017651D8B45E
:10117800120043C011F0260E126E455095EC09F08E
:10118800120070517111D8A4120055C011F0260E2A
:10119800126E495095EC09F053C011F0260E126EEC
:1011A800475095EC09F043C011F0260E126E4550D9
:1011B80095EC09F01200000E0B6E09AE06D0086C13
:1011C800091ED8B0092A010E0B6E07AE06D0066CB0
:1011D800071ED8B0072A010E0B1A000E0D6E000E5E
:1011E8000C6E08500910D8B41CD0010E0A6E04D039
:1011F800D890083609360A2A09AEFAD7D8900C369C
:101208000D360850065C09500758D8A005D008507C
:10121800065E0950075A0C80D890093208320A2E07
:10122800EDD70B50D8B404D00C6C0D1ED8B00D2AD5
:101238000CC006F00DC007F012002AEC06F0030EF1
:1012480000016017000E611760056111D8A408D06D
:101258007F0E116E2F0E126E000E95EC09F0120023
:10126800020E60196111D8A408D07F0E116E7C0E91
:10127800126E000E95EC09F01200030E6019611150
:10128800D8A408D07F0E116E5C0E126E000E95EC7D
:1012980009F01200040E60196111D8A412007F0E23
:1012A800116E2D0E126E000E95EC09F012005750BB
:1012B800D8B42CD0010E4B24256E000E4C20266E7F
:1012C800070E25182610D8A421D0140E4D184E103C
:1012D800D8A41CD04F50415E5050425A624B632BE9
:1012E800A0EC0AF0000E576E3EEC0CF092C011F024
:1012F800250E126E945195EC09F000017951D8A48D
:101308001200010E796F4FC07AF012005750D8A41E
:10131800120092C011F0250E126E945195EC09F04E
:101328001200136EE00E1224066E076AFF0E0722E3
:10133800000E096E050E086E02EC0DF006C016F0E0
:1013480007C017F01150050DF3CF11F0000E196EFC
:10135800000E186E570E1624F66E7C0E1720F76EC8
:101368000800F550146E156A11C00BF014C00CF08B
:10137800135091EC0BF0112A164A172A184A192A09
:1013880019BEE8D7195005E1050E185CD8B012004F
:10139800E1D71200000E196E15AE06D0146C151E9A
:1013A800D8B0152A010E196E17AE04D0166C171E88
:1013B800D8B0172A16501710D8B418D0010E186EC6
:1013C80004D0D89016361736182A17AEFAD7165002
:1013D800145C17501558D8A004D01650145E175036
:1013E800155AD89017321632182EF1D71950D8B48A
:1013F80004D0146C151ED8B0152A14C014F015C0EA
:1014080015F01200000E146E000E136E000E166E0C
:10141800000E156E000E186E000E176E570E132470
:10142800F66E780E1420F76E0800F550116E126AE9
:1014380017C00BF011C00CF0155091EC0BF0134ACB
:10144800142A174A182A18BEE9D7185004E1800E42
:10145800175CD8A0E3D7154A162A16BEDBD7165054
:1014680005E1080E155CD8B01200D4D71200B60EEC
:10147800F66E1A0EF76E000EF86E00EE88F010EE9B
:101488000EF00900F5CFEEFFE550E150FAE1A40EA9
:10149800F66E1A0EF76E000EF86E00EE41F010EEC2
:1014A80012F00900F5CFEEFFE550E150FAE100EE49
:1014B80060F0280EEE6AE806FDE100EE53F0070E34
:1014C800EE6AE806FDE15A905A92000EF86E0001A5
:1014D80058EF04F0000E216E6F0E206E20C015F03C
:1014E800140ED1EC0AF020C015F0320ED1EC0AF03F
:1014F800204A212A21BEF2D7215004E1770E205C30
:10150800D8A0ECD7000E236E140E226E770E156E3F
:101518002250D1EC0AF06F0E156E2250D1EC0AF071
:10152800224A232A23BEF2D7235005E1330E225C38
:10153800D8B01200EBD71200000E226E300E216ECA
:1015480016D0000E246E710E236E23C015F02150A4
:10155800D1EC0AF0234A242A24BEF7D7245004E108
:10156800760E235CD8A0F1D72106D8A022062150F8
:10157800415C4250800A206E2250800A2058D8A030
:10158800E0D742BE06D0425007E1170E415CD8B002
:101598001200010E0001756F12001D6E1DC016F0BD
:1015A800D8901632D8901632D890163216501E6E31
:1015B8001F6A1DC016F0070E1616010E176E000ED4
:1015C800186E162A03D0D89017361836162EFBD761
:1015D80017C019F018C01AF015C012F01E5015ECFB
:1015E8000DF0166E16501B6E1C6A15C00BF01950C4
:1015F8001B100C6E1E5091EC0BF01200070E116EB2
:10160800000E126E7F0E136E000E62EC0BF0000ED1
:101618000001736F010E726F000E526E030E516E51
:10162800000E636F000E626F000E756F000E796F0B
:10163800000E576E000E426E300E416E000EBE6EEA
:10164800000E7F6F7FC058F058C059F0140E116E0D
:10165800240E126E070E95EC09F012000D6E400E66
:101668000B6004D0000E106E010E03D0000E106E39
:10167800020E0F6E0FC011F00C50D8B406D00D50EA
:1016880036EC0DF00B5084EC0CF01150D5EC0CF04E
:101698009568000E936E1104D8B48190020E11184B
:1016A800D8B481928186818400F0818800F083CF4C
:1016B8000EF08198818081820E501200176E17C03B
:1016C80018F0196A1CD012C01AF01B6A09D01AC087
:1016D8000BF0000E0C6E185091EC0BF01A4A1B2AF6
:1016E8001350146E156A1A50145C1550800A166E41
:1016F8001B50800A1658D8B0EAD7184A192A115030
:10170800146E156A1850145C1550800A166E19501C
:10171800800A1658D8A01200D6D70D6E400E0B605E
:1017280004D0000E0F6E010E03D0000E0F6E020ED5
:101738000E6E0EC010F00D5036EC0DF00B5084EC10
:101748000CF01050D5EC0CF0000E936E1004D8B4C9
:101758008190020E1018D8B481928196818400F08D
:10176800818800F00CC083FF000E956E00F0819810
:10177800818081821200000E0E6E000E0F6E000E28
:10178800106E000E116E06A008D00A500E260B50DF
:101798000F220C5010220D501122D8900A360B3609
:1017A8000C360D36D8900932083207320632065008
:1017B800071008100910D8A4E6D70EC006F00FC00D
:1017C80007F010C008F011C009F012001D6E000EDD
:1017D8001F6E000E1E6E11D01A501E24116E1BC0F3
:1017E800F6FF1CC0F7FF0800F5CF12F01D5095EC6E
:1017F80009F01B4A1C2A1E4A1F2A1BC0F6FF1CC0E0
:10180800F7FF0800F5500A0AD8B412001BC0F6FF0B
:101818001CC0F7FF0800F5500009D8B41200DCD747
:1018280088C006F089C007F08AC008F08BC009F0AC
:101838006D0E0A6E4E0E0B6EC60E0C6E410E0D6EC0
:10184800BFEC0BF006C088F007C089F008C08AF02A
:1018580009C08BF0390E00018827300E8923000E4D
:101868008A23000E8B23FF0E8A15126E7F0E8B15AE
:10187800136E120014EC0CF012C014F013C015F023
:10188800000E176E070E166ECEEC09F014C094F019
:1018980015C095F014EC0CF012C014F013C015F03C
:1018A800000E176E140E166ECEEC09F014C092F0EE
:1018B80015C093F0000194519511D8A41200944BCF
:1018C800952B12000AD007C0F6FF08C0F7FF0800E2
:1018D800F55062EC0DF0074A082A07C0F6FF08C069
:1018E800F7FF0800F5500A0AD8B4120007C0F6FF3F
:1018F80008C0F7FF0800F5500009D8B41200E3D774
:101908000A6E400E0A600CD0010E086E0A5040099B
:10191800A1EC0CF0020E086E400EA1EC0CF01200C7
:10192800010E086E7F0EA1EC0CF0020E086E0A5034
:10193800C00F4009A1EC0CF01200096E0850D5EC5C
:101948000CF0000E936E0804D8B48190020E0818AB
:10195800D8B481928196819400F0818800F009C002
:1019680083FF000E956E00F08198818081821200BD
:10197800000194514B1814E195514C18D8A4120049
:1019880092514D180DE193514E18D8A41200010E32
:10199800576E4DC011F0250E126E4B2895EC09F0CC
:1019A8001200076E9568000E936E0704D8B48190F4
:1019B800020E0718D8B481928186819400F081883C
:1019C80000F083CF06F0819806BEF9D78180818226
:1019D8001200026E080E036E000E046ED8900234D8
:1019E8000434046ED89002360150045CD8A002D0AA
:1019F8000150045E032EF2D704501200065008026C
:101A0800F3CF0AF0F4CF0BF006500902F3500B267F
:101A180007500802F3500B260AC006F00BC007F067
:101A28001200146E12C00BF0010E0C6E145032EC42
:101A38000BF012C00BF0010E0C6E145032EC0BF0D0
:101A4800136E13501200818A010E086E3F0EA1EC2E
:101A58000CF0020E086E3F0EA1EC0CF0000E44ECE8
:101A68000DF012000A6E010E086E0A50B809A1ECBA
:101A78000CF0020E086E0A50B809A1EC0CF0120026
:101A88000A6E010E086E0A50C009A1EC0CF0020E95
:101A9800086E0A50C009A1EC0CF0120030001400C6
:101AA8000200030001000700050001000300010017
:101AB800000030001400070014000500066E9EA800
:081AC800FED706C0ADFF1200BD
:107856000000000000000000000000000000000022
:1078660000000000C0C03C3CFCE0C000000000007E
:107876000000000000000000000000000000000002
:10788600000000FFFF070371F0FFFFFFF0F0710338
:1078960007FFFF00000000000000000000000000DD
:1078A600000000000000000080808080808C8E8EAA
:1078B6008E8E7E7E7EFEFEFCF0F0E0000000808074
:1078C60000000000000000000000000000000000B2
:1078D60000000000000000000000000000000000A2
:1078E60000E00E0E01013E3E3F3F3F3E3EF0E0000F
:1078F6000000000000000000000000000000000082
:10790600000000FFFF1F1C1C1818181818181C1C54
:107916001FFFFF0000000000000000000000000044
:10792600000000000000007F7F7FFFFFFFFFFFFFDA
:107936008383FCFCFCFFFFFF7F7F7F0000FFFFFFD0
:1079460080808000000000000000000000000000B1
:107956000000000000000000000000000000000021
:1079660000FF00000000FFFFFFFFFFFFFFFFFF001B
:107976000000000000000000000000000000000001
:10798600000000FFFF0E06C6C686061EFEFEFEFEB1
:10799600FEFFFF00000000000000000000000000E5
:1079A60000000000008080000000038383E3E3E31F
:1079B6006363636363E3E3E3000000E0E09F9F9F8C
:1079C600FFFFFF00000000000000000000000000B4
:1079D60000000000000000000000000000000000A1
:1079E60000FF00000000FFFF809F9F8180FFFF00D7
:1079F6000000000000000000000000000000000081
:107A0600000000FFFF6060E1E1E1E0E0E1E1E1E1CB
:107A1600E1FFFF00000000000000000060E0E0E081
:107A2600E0E0E0E0F0FFFFF0E0E01F1F1F1F1F0F88
:107A36000000000000FFFFFF000080FFFFF7E3E308
:107A4600FFFFFF0000000000000000000000000033
:107A5600000000000000000000000000000000C060
:107A6600E0FF00000000FFFF3701013F3FFFFFC0BE
:107A76008000000000000000000000000000000080
:107A8600000000FFFF0000C3C3C3C3C3C3C3C3C317
:107A9600C3FFFF000000000000000000000000001F
:107AA6000000E0E0E0E0E0E0E0E0E3E3E7FFFFFF26
:107AB600FFFF3F1F1FE0E0E0FFFFFFFFFFFCFCFCB6
:107AC6001F1F1F0000000000000000000000000053
:107AD6000000000000000000000000E0E01E1EE1C3
:107AE600F3FF00000000FFFFFFFFFFFFFFFFFF07A0
:107AF6000FFEE0E0000000000000000000000000B3
:107B0600000000FFFF0606FFFFFF0707FFFFFF0756
:107B160007FFFF000000000000000000000000005A
:107B260000001F1F1F1F1F07070707070707070775
:107B3600070700000018181807070718180707078F
:107B4600F8F8F80000000000000000000000000047
:107B5600000000000000000000FEFF0000FCFCFC2E
:107B6600FFFF00000000FFFFFFFFFFFFFFFFFF001A
:107B760000FCFCFCFFFF000000000000000000000D
:107B8600000000FFFF606061616160606161E1E0CB
:107B9600E0FFFF0000000000000000001838383F3A
:107BA6003F3F3F3F3F3F3F00000000000000000016
:107BB6000000000000F8F8F80000003838F8F8F87F
:107BC6000000001838180000000000000000000047
:107BD600000000000000000000011F00001F1F1F22
:107BE6001F1F000000001F1F1F1F1F1F1F1F190040
:107BF600001F1F1F1F1F00000000000000000000E4
:107C0600000000FFFFF8F8F8F8F8F8F898181800E0
:107C1600C3FFFF000000000000000000000000009D
:107C2600000000000000000000000000000000004E
:107C360000000000000000003838180707C0C0C068
:107C460038383807070600001038380000000000F2
:107C560000000000000000005F00001E3E7C3E1E8B
:107C6600E03C133CE07CC0C0C07C7B4ACE4A7BFC37
:107C76000A1F0AFC0005030000001C224100004107
:107C8600221C00082A1C2A0808083E080800503052
:107C9600000008080808080030300000201008041A
:107CA600023E5149453E00427F40004261514946ED
:107CB6002141454B311814127F1027454545393C63
:107CC6004A49493001710905033649494936064989
:107CD60049291E00363600000056360000000814FA
:107CE60022411414141414412214080002015109EB
:107CF60006324979413E7E1111117E7F4949493646
:107D06003E414141227F4141221C7F494949417FF1
:107D1600090901013E414151327F0808087F0041AF
:107D26007F41002040413F017F081422417F4040AF
:107D360040407F0204027F7F0408107F3E4141419C
:107D46003E7F090909063E4151215E7F09192946F0
:107D5600464949493101017F01013F4040403F1FEB
:107D66002040201F7F2018207F631408146303041B
:107D7600780403615149454300007F4141020408EC
:107D8600102041417F0000040201020440404040AF
:107D960040000102040020545454787F484444387B
:107DA6003844444420384444487F385454541808CE
:107DB6007E090102081454543C7F080404780044E8
:107DC6007D40002040443D00007F10284400417F54
:107DD60040007C041804787C080404783844444441
:107DE600387C14141408081414187C7C080404083D
:107DF6004854545420043F4440203C4040207C1CBE
:107E06002040201C3C4030403C44281028440C5064
:107E160050503C4464544C44000836410000007FF6
:107E26000000004136080008082A1C08081C2A0819
:107E3600080800AA000800383838000000000000D2
:107E46000000000000262524232220202020202FA9
:107E56002F2F2F4A45545049435C5C5C5C200D50E3
:107E6600524F4A454354204D4144452042592050E3
:107E760041552043414D50494C4C4F2069204269A1
:107E860062656B0D002055503A20202020710D2090
:107E9600444F574E3A2020610D204C4546543A2017
:107EA600206F0D2052494748543A20700D004D6FFF
:107EB60076696D656E74206465206C61206E6175EF
:107EC60020616D6220626F746F6E732066697369DC
:107ED60063730D004D6F76696D656E742064652061
:107EE6006C61206E617520616D62207465636C61E2
:107EF600743A0D00232023202320232047414D459B
:107F0600204F5645522023202320232023000D50A6
:107F16005245535320535441525420544F20504CF1
:107F26004159210D0053454C454354204541535971
:107F3600204D4F4445203A2800464C41574C455366
:107F46005320564943544F525921002F2F496E73DF
:107F56007472756363696F6E733A0D0050524553C0
:107F660053205354415254210047414D4520535507
:107F760043434545440054484154275320414C4C03
:107F86003F0047414D45204641494C4544004E4936
:107F960043452054525921002620262026202620FB
:107FA60026004752454154204A4F4200424F52490B
:107FB6004E47210042525554414C21004C495645EA
:107FC6004C59210045585452454D45005448524994
:107FD6004654590052696768740D002620262026EB
:107FE60020004A455450494300446F776E0D004CBB
:0A7FF6006566740D0055700D000063
:020000040030CA
:0E000000FF021900FFA580FF0FC00FE00F40A8
:00000001FF
